:100000000C943E000C945B000C945B000C945B0021
:100010000C945B000C945B000C945B000C945B00F4
:100020000C945B000C945B000C945B000C945B00E4
:100030000C945B000C945B000C945B000C945B00D4
:100040000C945B000C945B000C946C000C945B00B3
:100050000C945B000C945B000C945B000C945B00B4
:100060000C945B000C945B000C945B000C945B00A4
:100070000C945B000C945B000C945B0011241FBE7D
:10008000CFEFD8E0DEBFCDBF12E0A0E0B1E0EAE7FD
:10009000F6E002C005900D92A434B107D9F712E042
:1000A000A4E4B2E001C01D92A237B107E1F70E94BB
:1000B000C9020C943B030C94000014BC83E085BD82
:1000C00085B385BB16BC81E080936E00E4E6F0E06A
:1000D00080818A7F808308951F920F920FB60F92BE
:1000E00011241F932F933F934F935F936F937F93AD
:1000F0008F939F93AF93BF93EF93FF938FE286BD50
:10010000809144022091450230914602409147027D
:1001100060914802E0914902A0914A0210914B027D
:10012000B82FBF5F91E0B81708F090E0F92FF20FF9
:1001300081E0F21708F080E0782F730F81E07317E9
:1001400008F080E0582F540F81E0541708F080E049
:10015000382F360F81E0361708F080E0282F2E0F59
:1001600081E02E1708F080E0982F9A0F81E09A170F
:1001700008F080E0810FB0934402F0934502709341
:1001800046025093470230934802209349029093CD
:100190004A0280934B02FF91EF91BF91AF919F91E3
:1001A0008F917F916F915F914F913F912F911F910F
:1001B0000F900FBE0F901F90189520914402309120
:1001C0004502409146025091470260914802709169
:1001D000490280914A0290914B0208952098409ADA
:1001E0003998419A3A98429A3B98439A2098289A8B
:1001F0002198299A22982A9A23982B9A249A2C9A01
:10020000259A2D9A269A2E9A279A2F9A3C984498A6
:100210003D9845983E9846983F984798E1E6F2E029
:100220001082118212821382349682E0E137F8073D
:10023000B9F7089580E091E00E94240345B1A091B0
:100240007102B0E0FD01E55CFD4F21E030E0C90145
:10025000008002C0880F991F0A94E2F780958423DA
:1002600085B988B1FD01E15CFD4F008002C0220F1D
:10027000331F0A94E2F72095282328B9AA0FBB1F41
:10028000AA0FBB1FAF5ABD4F8C91882329F08BE07A
:1002900091E00E942403449AE0917102F0E0EE0F95
:1002A000FF1FEE0FFF1FEF5AFD4F8181882329F0BA
:1002B000459A80E191E00E942403E0917102F0E010
:1002C000EE0FFF1FEE0FFF1FED5AFD4F80818823B9
:1002D00029F0469A86E191E00E942403E0917102A0
:1002E000F0E0EE0FFF1FEE0FFF1FEF5AFD4F83816F
:1002F000882329F0479A8DE191E00E94240380E24F
:100300009EE40197F1F785E291E00E9424031C9995
:1003100027C08FE291E00E94240380917102E82FB0
:10032000F0E0EE0FFF1FEE0FFF1FEF59FD4F808132
:1003300083307CF58F5F8083833059F583E491E0CF
:100340000E942403E0917102F0E0EE0FFF1FEE0F18
:10035000FF1FEF5AFD4F808191E08927808319C0EC
:100360008BE491E00E94240380917102E82FF0E079
:10037000EE0FFF1FEE0FFF1FEF59FD4F8081181684
:1003800044F481508083882321F481E691E00E9427
:10039000240386E791E00E9424031D9927C080E88A
:1003A00091E00E94240380917102E82FF0E0EE0FAB
:1003B000FF1FEE0FFF1FEF59FD4F818183307CF54A
:1003C0008F5F8183833059F583E491E00E94240399
:1003D000E0917102F0E0EE0FFF1FEE0FFF1FEF5AEA
:1003E000FD4F818191E08927818319C084E991E0E3
:1003F0000E94240380917102E82FF0E0EE0FFF1FAE
:10040000EE0FFF1FEF59FD4F8181181644F4815004
:100410008183882321F481E691E00E9424038AEA03
:1004200091E00E9424031E9927C084EB91E00E9472
:10043000240380917102E82FF0E0EE0FFF1FEE0F12
:10044000FF1FED59FD4F808183307CF58F5F8083E6
:10045000833059F583E491E00E942403E091710216
:10046000F0E0EE0FFF1FEE0FFF1FED5AFD4F8081F2
:1004700091E08927808319C088EC91E00E942403D1
:1004800080917102E82FF0E0EE0FFF1FEE0FFF1FCB
:10049000ED59FD4F8081181644F4815080838823E4
:1004A00021F481E691E00E9424038EED91E00E9408
:1004B00024031F9927C088EE91E00E9424038091B5
:1004C0007102E82FF0E0EE0FFF1FEE0FFF1FEF5954
:1004D000FD4F838183307CF58F5F8383833059F5B3
:1004E00083E491E00E942403E0917102F0E0EE0FBA
:1004F000FF1FEE0FFF1FEF5AFD4F838191E0892709
:10050000838319C08EEF91E00E94240380917102D1
:10051000E82FF0E0EE0FFF1FEE0FFF1FEF59FD4F2A
:100520008381181644F481508383882321F481E663
:1005300091E00E94240380E29EE40197F1F745B127
:1005400050917102E52FF0E0DF01A55CBD4F21E085
:1005500030E0C9010C9002C0880F991F0A94E2F79D
:10056000482B45B988B1E15CFD4F008002C0220FE5
:10057000331F0A94E2F7822B88B94498459846982D
:1005800047985F5F50937102543010F010927102DF
:1005900008950E94010384E192E00E9424030E94D6
:1005A000EE00209144023091450240914602509164
:1005B0004702609148027091490280914A029091ED
:1005C0004B0228513C4F4F4F5F4F20934C023093CA
:1005D0004D0240934E0250934F0210925002E1E5BB
:1005E000F2E01082118212821382349682E0E136A8
:1005F000F807B9F788E292E00E9424030E941A01EA
:10060000FDCF1092C50087E68093C40088E18093F7
:10061000C100E2ECF0E08081877F8083808184608C
:1006200080838081806280830895982F8091C000AC
:1006300085FFFCCF9093C60008958091C00087FF8E
:10064000FCCF8091C6000895FC0107C08091C000D6
:1006500085FFFCCF31969093C60090819923B1F726
:100660000895982F8091C00085FFFCCF9093C6001D
:0A06700080E090E00895F894FFCFB9
:10067A0020696E207363616E200A00202A200A0016
:10068A00202A2A200A00202A2A2A200A00202A2A86
:10069A002A2A200A002062746E3A5042340A002044
:1006AA004520617061736174205042342A2A2A2AD3
:1006BA003F0A004B65792055700A004E55204520A7
:1006CA0061706173617420504234202D2D2D3F0AD0
:1006DA00004B6579206E6F74207072657373656460
:1006EA00205570200A002062746E3A5042350A0082
:1006FA00204520617061736174205042352A2A2A8C
:10070A002A3F0A004E5520452061706173617420AA
:10071A00504235202D2D2D3F0A002062746E3A502A
:10072A0042360A002045206170617361742050428C
:10073A00362A2A2A2A3F0A004E552045206170612E
:10074A0073617420504236202D2D2D3F0A002062FD
:10075A00746E3A5042370A00204520617061736115
:10076A0074205042372A2A397566393F0A004E5595
:10077A0020452061706173617420504237202D2D0D
:10078A002D3F0A005374617274696E672053657451
:10079A0075702E2E2E200A002053657475702E2E29
:1007AA002E436F6D706C6574650A000001020300C8
:0407BA000102030035
:00000001FF
