:100000000C943E000C945B000C945B000C945B0021
:100010000C945B000C945B000C945B000C945B00F4
:100020000C945B000C945B000C945B000C945B00E4
:100030000C945B000C945B000C945B000C945B00D4
:100040000C945B000C945B000C946C000C945B00B3
:100050000C945B000C945B000C945B000C945B00B4
:100060000C945B000C945B000C945B000C945B00A4
:100070000C945B000C945B000C945B0011241FBE7D
:10008000CFEFD8E0DEBFCDBF11E0A0E0B1E0E0E807
:10009000F7E002C005900D92A831B107D9F711E041
:1000A000A8E1B1E001C01D92A134B107E1F70E94BF
:1000B00028020C94BE030C94000014BC83E085BDA0
:1000C00085B385BB16BC81E080936E00E4E6F0E06A
:1000D00080818A7F808308951F920F920FB60F92BE
:1000E00011241F932F933F934F935F936F937F93AD
:1000F0008F939F93AF93BF93EF93FF938FE286BD50
:10010000809118012091190130911A0140911B0131
:1001100060911C01E0911D01A0911E0110911F0131
:10012000B82FBF5F91E0B81708F090E0F92FF20FF9
:1001300081E0F21708F080E0782F730F81E07317E9
:1001400008F080E0582F540F81E0541708F080E049
:10015000382F360F81E0361708F080E0282F2E0F59
:1001600081E02E1708F080E0982F9A0F81E09A170F
:1001700008F080E0810FB0931801F093190170939B
:100180001A0150931B0130931C0120931D01909381
:100190001E0180931F01FF91EF91BF91AF919F913D
:1001A0008F917F916F915F914F913F912F911F910F
:1001B0000F900FBE0F901F9018952091180130914D
:1001C000190140911A0150911B0160911C0170911D
:1001D0001D0180911E0190911F010895249A2C9A6F
:1001E000259A2D9A269A2E9A279A2F9A2098289AFD
:1001F0002198299A22982A9A23982B9A089A10983B
:10020000099A11980A9A12980B9A1398389A40985A
:10021000399A41983A9A42980C9A149A0D9A159ADA
:100220000E9A169A0F9A179A109A139A44E050E071
:10023000A1E0B0E060E971E022B1CD01042E02C07E
:10024000880F991F0A94E2F78095822382B988E883
:1002500093E1FB013197F1F70197D9F74F5F5F4FBA
:100260004830510549F71098139844E050E0A1E058
:10027000B0E060E971E022B1CD01042E02C0880F28
:10028000991F0A94E2F7282B22B988E893E1FB0131
:100290003197F1F70197D9F74F5F5F4F483051051C
:1002A00051F7119A129A1598169888E893E120E967
:1002B00031E0F9013197F1F70197D9F711981298C8
:1002C000159A169A88E893E120E931E0F90131970F
:1002D000F1F70197D9F7119A129A45E050E0A1E0A1
:1002E000B0E060E971E022B1CD01042E02C0880FB8
:1002F000991F0A94E2F78095822382B988E893E1F6
:10030000FB013197F1F70197D9F74F5F5F4F473006
:10031000510549F71198129845E050E0A1E0B0E08E
:1003200060E971E022B1CD01042E02C0880F991F4F
:100330000A94E2F7282B22B988E893E1FB01319770
:10034000F1F70197D9F74F5F5F4F4730510551F7EC
:10035000119A419888E893E120E931E0F901319759
:10036000F1F70197D9F71198419A88E893E120E9CC
:1003700031E0F9013197F1F70197D9F7129A4298D4
:1003800088E893E120E931E0F9013197F1F701972D
:10039000D9F71298429A80E49FE120E931E0F9010F
:1003A0003197F1F70197D9F7129A159888E893E1F8
:1003B00020E931E0F9013197F1F70197D9F7129867
:1003C000159A88E893E120E931E0F9013197F1F7D6
:1003D0000197D9F7119A169888E893E120E931E05E
:1003E000F9013197F1F70197D9F71198169A88E832
:1003F00093E120E931E0F9013197F1F70197D9F75D
:1004000010C0892F820F81932F5F3F4F2430310519
:10041000C1F79C5F4F5F5F4F913731F4E1E3F1E04B
:100420000DC091E640E050E0FA01EE0FFF1FEE0F25
:10043000FF1FEF5DFE4F20E030E0E3CF108211821E
:1004400012821382349681E0E134F807B9F70895F7
:10045000AF92BF92DF92EF92FF920F931F93DF93C1
:10046000CF9300D0CDB7DEB70E9484030E94EE0088
:1004700021E0E22EF12C90E2A92E9EE4B92E8E010D
:100480000F5F1F4FDD24D3941A8222B18091200187
:10049000A82FB0E0FD01E050FF4FC701008002C06F
:1004A000880F991F0A94E2F7382F3095232322B939
:1004B00025B1FD01EC5FFE4FC701008002C0880F2F
:1004C000991F0A94E2F78095822385B9C5010197A7
:1004D000F1F7FD01EF5CFE4F189919C0109A409A90
:1004E00082B1832382B988B1382338B9AF5DBE4F5A
:1004F0008C91898380818823D1F4C8010E94A7034D
:10050000E0912001F0E0EF5CFE4FD08210C08081CE
:10051000813069F4A85FBE4F8C918983C8010E9425
:10052000A703E0912001F0E0EF5CFE4F1082A09164
:100530002001199925C0119A22B1B0E0FD01E050C7
:10054000FF4FC701008002C0880F991F0A94E2F78D
:100550008095822382B9FD01EF5DFE4F84818983FE
:10056000AF5CBE4F14968C918823F9F4C8010E94A9
:10057000A703E0912001F0E0EF5CFE4FD48215C0AC
:10058000B0E0FD01EF5CFE4F8481813071F4A85F23
:10059000BE4F14968C918983C8010E94A703E091F5
:1005A0002001F0E0EF5CFE4F1482A09120011A9927
:1005B00025C0129A22B1B0E0FD01E050FF4FC70103
:1005C000008002C0880F991F0A94E2F78095822369
:1005D00082B9FD01EF5DFE4F80858983AF5CBE4F20
:1005E00018968C918823F9F4C8010E94A703E09122
:1005F0002001F0E0EF5CFE4FD08615C0B0E0FD01B9
:10060000EF5CFE4F8085813071F4A85FBE4F189675
:100610008C918983C8010E94A703E0912001F0E03A
:10062000EF5CFE4F1086A09120011B9925C0139A04
:1006300022B1B0E0FD01E050FF4FC701008002C0D1
:10064000880F991F0A94E2F78095822382B9FD01F1
:10065000EF5DFE4F84858983AF5CBE4F1C968C9105
:100660008823F9F4C8010E94A703E0912001F0E07B
:10067000EF5CFE4FD48615C0B0E0FD01EF5CFE4F8D
:100680008485813071F4A85FBE4F1C968C9189835C
:10069000C8010E94A703E0912001F0E0EF5CFE4F4B
:1006A0001486C5010197F1F725B130912001A32FE0
:1006B000B0E0FD01EC5FFE4FC701008002C0880F73
:1006C000991F0A94E2F7282B25B922B1A050BF4FF9
:1006D000C7010C9002C0880F991F0A94E2F7282BDB
:1006E00022B928B1822B88B91098119812981398C2
:1006F0004098419842983F5F30932001343008F48D
:10070000C3CE10922001C0CE1092C50087E6809320
:10071000C40088E18093C100E2ECF0E08081877F33
:10072000808380818460808380818062808308955B
:10073000982F8091C00085FFFCCF9093C60008954C
:100740008091C00087FFFCCF8091C6000895FC0116
:1007500007C08091C00085FFFCCF31969093C60002
:1007600090819923B1F70895982F8091C00085FF5B
:10077000FCCF9093C60080E090E00895F894FFCFFE
:1007800004050607040506072E2C2A3C3E2B2D3DAA
:080790005F7E28292340262585
:00000001FF
